:020000040000FA
:1000000040B60110F10000000901000009010000E4
:1000100000000000000000000000000000000000E0
:1000200000000000000000000000000009010000C6
:1000300000000000000000000901000009010000AC
:100040005B0C00000901000009010000090100002B
:100050000901000009010000090100000901000078
:100060000901000009010000090100000901000068
:100070000901000009010000090100000901000058
:100080000901000009010000090100000901000048
:100090000901000009010000090100000901000038
:1000A000090100000901000000000000000000003C
:1000B0000000000000000000000000000000000040
:1000C0000348854601F0D2FF00480047D5000000F4
:1000D00040B60110002000F078FC00F09DFDFEE726
:1000E000FEE700000000000000000000000000002B
:1000F000064800680078012801D0054800470548F7
:100100000047000029440010FEE700000401000041
:10011000C1000000D5000000F8498A7D282AFCD2E1
:10012000F74A91680870491CF6489160814201D9EC
:1001300031389060F449108988770012C877704789
:1001400030B504460D46002303E0E05CFFF7E4FF12
:100150005B1CAB42F9D330BDF8B5EC4B187959793B
:10016000000209040843D978DA050843E44C8018F2
:10017000E060E64920398D7CCE7C2D023604354383
:100180004E7C3543AD1825614E7D8F7D36023F0490
:100190003E430F7D3E43B61866610E7E4F7E3602AB
:1001A0003F043E43CF7D3E43B618A661CE7E0F7F0F
:1001B00036023F043E438F7E3E43B618E6618E7F93
:1001C000CF7F36023F04497F3E430E43B118216280
:1001D00059789E780902360431431E7831438918D4
:1001E000616229785F2923D0D9791A7A0902120429
:1001F00011439A7911431A795D7912022D04DB7843
:100200002A431A43891ACA17920F5118890889007C
:1002100001F021FF616900200870A1690870E1699F
:100220000870216A0880616A088021695F2008706F
:10023000F8BDB5482038C17801221143C170417C16
:100240004906490E4174B0480C212030C1760D2179
:100250000177AD48342181748021C174A9493139B5
:1002600081760A46120AC2768177C27731310177E8
:10027000090A4177A24901750A46120A42750176B8
:100280004276491C8175090AC175812141749D48D6
:100290009B49313888605FE710B5AA24147050700C
:1002A00091702E2900D92E21C91C88B2BB2111546E
:1002B000401C187010BD92490020496908707047B1
:1002C0008F48012142691170C16935220A70806925
:1002D0000278002A02D00A78352AF9D07047F0B5A2
:1002E0008FB08748066A446A00230020019072B6E6
:1002F000FFF7E6FF2788348823E08148A100C06823
:100300000422091802A8C018C01C01F08BFE7F4807
:10031000C179027A090212041143827911430279E8
:10032000437912021B04C0781A430243881AC1178A
:10033000890F08188110601C01F060FE8CB23480B7
:10034000ABB2A74202D01D1D2E2DD6D3FFF7B3FFAF
:1003500062B6002B0AD0D9B201AB02AA0020FFF787
:100360009BFF6846017902A8FFF7EAFE0FB0F0BDD7
:10037000B5E701700A0A42700A0C8270090EC1705A
:10038000704770B58EB0129D1446002200926E46E2
:10039000F07102A8FFF7EDFF03A82146FFF7E9FF80
:1003A00004A81946FFF7E5FF05A82946FFF7E1FF76
:1003B00011216B4601AA0120FFF76EFF317801A8D9
:1003C000FFF7BEFE0EB070BD10B54D48036A446A1B
:1003D00072B6FFF775FF22881B88FFF76CFF62B6C5
:1003E0009A4201D1012010BD002010BDF8B506468B
:1003F0000F46434C206A0090656A00F0B5FA002869
:1004000007D06680A78072B6414AF82141A0FFF765
:1004100067FE72B6FFF754FF288831043943E3685A
:1004200082009950394CE179227A09021204114371
:10043000A27911432279637912021B041A43E378EB
:10044000401C1A43891ACA17920F5118891001F0DB
:10045000D5FD88B200990988884203D1002808D0C8
:10046000401E80B22880FFF726FF62B6FFF737FFF5
:10047000F8BDE079217A000209040843A179084314
:1004800021796279090212041143E2781143401A7A
:10049000C117890F08188010401E80B2E2E738B5F6
:1004A00005460C46002C17D0FB2C00DDFB24AA20AF
:1004B00069460870022048708C7003216846FFF777
:1004C0003FFE21462846FFF73BFEBB2069460870E9
:1004D00001216846FFF734FE38BD70B5002409E0FD
:1004E0000D78C82D08D2165D46550D786D1C0D701F
:1004F000641CE4B29C42F3DB70BD0000408300103A
:1005000000000110810101106080001020440010E3
:100510000C2100002E2E5C2E2E5C2E2E5C2E2E5CCE
:100520002E2E5C2E2E5C4C69627261726965725C63
:10053000647269766572735C64656275675C796321
:100540005F64656275672E63000000000FB4F0B54C
:10055000BFB045A83490002001904DE0002400E099
:10056000641C105D252801D00028F9D1002C04D08E
:10057000234601A902A8FFF7B0FF44980019449050
:100580000178252938D1401C449000252020369040
:1005900044990878491C449138283BD014DC33280E
:1005A00038D008DC25286ED0302833D0312831D01F
:1005B00032281BD12EE034282CD035282AD03628DA
:1005C00028D0372812D125E070287DD008DC3928C2
:1005D00020D058286DD0632829D0642806D131E076
:1005E00073283ED0752859D078286DD0052399A25C
:1005F00001A902A8FFF771FF449A10780028ADD135
:100600006846017902A8FFF74AFF3FB0F0BC08BC7A
:1006100004B018472039C87F302803D1002D01D1FC
:10062000302136910A214D43303D4519B0E73498C9
:1006300002C83C91349001233CAA01A902A8FFF70B
:100640004CFFD9E7349901C934913C90002400282B
:1006500003DA40423C90012600E000260A203B904D
:100660003CE0349804C83490002400E0641C105D21
:100670000028FBD1234601A902A8FFF72EFFA542BF
:10068000BAD92C1B06E08EE0012374A201A902A8AE
:10069000FFF723FF641E601CAED0F5E7349802C854
:1006A0003C91349000240A203B90002616E00BE099
:1006B000FFE7349802C83C913490002410203B900E
:1006C00000265820359009E0349802C83C913490B7
:1006D000002410203B9000267820359001273C987C
:1006E0003E9001E03D9F6D1E3B99384648433E9940
:1006F0003D90884205D83B993D9801F069FCB8428D
:10070000F0D0002E00D06D1E002E08D03698302874
:1007100005D12D20214637AA641C50540026A81E5E
:100720000E280AD26D1E002D07D037A82246369912
:10073000641C81546D1E002DF8D1002E1BD02D207D
:10074000214637AA641C505415E0359878281BD0F0
:1007500039463E9801F03CFC3B9901F039FC404899
:100760004068425C204637A9641C0A5438463B99CD
:1007700001F02EFC0746002FE7D1234637AA01A936
:1007800002A8FFF7AAFE37E739463E9801F020FCA1
:100790003B9901F01DFC32480068425C204637A9B5
:1007A000641C0A54E2E7449A0123521E01A902A8DC
:1007B000FFF793FE20E7F8B505460E4617461C46A0
:1007C000002C21D0FB2C00DDFB24AA2069460870F8
:1007D00003204870201D887003216846FFF7B0FC95
:1007E00069460D70280A48708E7004216846FFF72C
:1007F000A7FC21463846FFF7A3FCBB2069460870DA
:1008000001216846FFF79CFCF8BDF8B506460F4687
:100810001446002C1CD0AA206946087001258020AF
:100820004870601C887004216846FFF789FC69469F
:100830000E7029466846FFF783FC21463846FFF7CD
:100840007FFCBB206946087001216846FFF778FCF1
:10085000F8BD70474552524F520000002000000082
:10086000042100007047C14AD178F9200140D170BD
:10087000704710B5BE4901200870BC4AD078F921F4
:10088000084006210143D17000F069F900F067F9D2
:1008900000F065F900F063F900F061F900F05FF92C
:1008A00000F05DF900F05BF900F059F900F057F93C
:1008B00000F055F900F053F900F051F900F04FF94C
:1008C00000F04DF900F04BF900F049F900F047F95C
:1008D00000F045F900F043F910BD10B5A44900201F
:1008E0000870A249C878F9221040C87000F037F9A2
:1008F00000F035F900F033F900F031F900F02FF98C
:1009000000F02DF900F02BF900F029F900F027F99B
:1009100000F025F900F023F900F021F900F01FF9AB
:1009200000F01DF900F01BF900F019F900F017F9BB
:1009300000F015F900F013F900F011F910BD8B4823
:10094000C0784007810F0020002907D0012907D077
:10095000022907D0032900D1C020704730207047FA
:10096000402070476020704781480078704700B58C
:10097000FFF7FAFF002811D17E4908784A78120261
:1009800010438A78C978120409060A43104378494B
:10099000CA68002A03D0824203D9C86000BDC8607B
:1009A00000BD801A06E04A68521C4A60CA682032BC
:1009B000CA6020382028F6D200BD00B50346FFF7F4
:1009C000D6FF1846FFF74FFF00BD10B4684B6A49C9
:1009D00099600022CA60694C8C6001240C750A6021
:1009E000DA6010BCE9E762498968002902D0002872
:1009F00002D008E00020704700207047884201D1F3
:100A0000012070471146CA68002AF7D100207047BC
:100A100030B50446564DA868002816D0002C16D0D4
:100A2000002B16D0A36072B6686840182060616021
:100A3000012020759006800E60752046FFF7D3FFD9
:100A4000002809D062B6012030BD002030BD002052
:100A500030BD4A48A060E6E7A868AC60E06062B6D6
:100A6000012030BD424B9968002902D0002802D0F5
:100A70000CE00020704700207047884205D1416893
:100A80005A6889180160012070471146CA68002A17
:100A9000F3D10020704736488068C0680028FCD138
:100AA000704710B5324CA168002906D0002806D046
:100AB000314A904205D1002010BD002010BD002019
:100AC00010BD0B460EE088420AD1002008758B420B
:100AD00002D1C868A06001E0C868D860012010BDDC
:100AE0000B461146CA68002AEDD1002010BD204BEC
:100AF0009868002808D0002201E002750846C16805
:100B00000029FAD11C489860704700B5FFF72FFF05
:100B100017490120487000BD00B5FFF728FF1449B0
:100B20000120487000BD70B502460023FFF707FFA3
:100B30005043134D6C69AA69A9699142FCD0914256
:100B400002D2521AD31802E0661AB218D3180A4613
:100B50008342F1D370BD7D21C9004843E3E700BF64
:100B600000BF00BF00BF00BF704700004080001002
:100B700028000110008300108401011065080000A6
:100B800000E000E0704710B54A480021C1600161F3
:100B9000014608220C31484801F0D8F910BD012067
:100BA0007047704743494878012804D0022805D18E
:100BB00000204870E6E702204870E4E7704770477D
:100BC00070473E4800210170817481703C49C170BA
:100BD0000A4612120271C171027246314171091244
:100BE000817138494172091281723749C172091203
:100BF0000173324AFF212032D17034494173091206
:100C000081733349C173091201743C2101700421BD
:100C1000417416214170704708B52E48417CFB2273
:100C20001140417401218170FFF7CBFF2A4922480E
:100C300001F011FA1F480021018028480090284B3C
:100C4000284A01211C4800F067FD1A48001D01F0E8
:100C5000AEF9002000F026F808BD10B5164800F0E7
:100C600058FC10BD08B52049012008601348002138
:100C70008170124B7F222033DA704174802181769B
:100C8000FFF79FFF14490C4801F0E5F91348009065
:100C9000134B144A0121084800F03EFD002000F0EB
:100CA00001F808BD104980390A68012383401A43BE
:100CB0000A607047380001109C010110008C001080
:100CC000FC3E0010983E0010D03D00106C3D00101E
:100CD000083D001040800010A404000080000110B6
:100CE000E80001104C00011080E100E012200880B3
:100CF00027487047042008802548001F704710B51A
:100D0000002806D00A46234923A001F06AF82148AA
:100D100010BD0A461F4920A001F063F8F7E710B59F
:100D20000A461C4921A001F05CF81A4810BD10B514
:100D3000002806D00A46174917A001F052F81548B6
:100D400010BD0A46134914A001F04BF8F7E710B59F
:100D5000002806D00A460F4917A001F042F80D48B6
:100D600010BD0A460B4914A001F03BF8F7E710B597
:100D7000002806D00A4607490FA001F032F80548BE
:100D800010BD0A4603490CA001F02BF8F7E700005C
:100D90006C00011040060110436F6D706F73697431
:100DA0006520434443204849440000004665617380
:100DB00079636F6D0000000055534220436F6E66EB
:100DC0006967000070477047704770477047704709
:100DD000704719231B0206E0194600E000BF0A46CF
:100DE000491E002AFADC0146401E0029F4DC704747
:100DF000F8B515461A46002000900024501E012325
:100E00001B07F84EC7B2002D0AD0012D1AD0022DB3
:100E100023D0F44820300079000729D50020F8BD00
:100E2000F04820300079C00701D00020F8BDEE481E
:100E300003431F70401C01F0F5F8EB48707200127C
:100E4000B07221E0E94803431F70401C01F0EAF84A
:100E5000E648F0720012307316E0E54803431F7055
:100E6000401C01F0DFF8E24870730012B0730BE031
:100E7000E04803431F70401C01F0D4F8DD48F073D4
:100E80000012307408203076D64904202031C87012
:100E9000D948CA78520703D4641CA4B28442F8D358
:100EA0000120A84030760098F8BD70B50C461E466B
:100EB000002500F081FA2070641C6D1CADB2B542B3
:100EC000F7D3C84904202031C87000230B710020DB
:100ED000C94ACC78640703D4401C80B29042F8D34E
:100EE000C648C0490088C87100120872C44803800F
:100EF00070BD70B504460D4600F06AFA03051B0D7F
:100F0000020B29462046FFF7D0FF70BDF8B5054615
:100F1000BB4C002020800090B248202320307D214F
:100F2000C90007E0C278920600D5C3706E463288C9
:100F3000521C00926A4612888A42F3D300F048FAA3
:100F400003051B0D2380002B05D0010B04D0010BE2
:100F5000284600F046FAF8BD082B06D0002001E034
:100F6000401C80B29842FBD3F8BDE81DFF30FA3038
:100F7000416E006F002209182846FFF796FFA1482E
:100F80000068816828468847F8BD70B500220025B2
:100F9000C57001248470402383800426012902D077
:100FA000002906D00BE0C4724670C3800221017292
:100FB00005E0C5720821017046708901C1802321B6
:100FC0008902C16090494162C91D81628E49113117
:100FD0000163104670BD00207047002201290AD02D
:100FE000002908D18F21C9004118FF30FF3002309D
:100FF00041660821C1661046704738B50546002095
:101000004B780122097814078A40E968D2B2491C5A
:101010002143012B04D000920B7893430B7038BD11
:1010200000920B7893430B7038BD38B5054600200D
:101030004B780122097814078A40E968D2B2491C2A
:101040002143012B04D000920B7813430B7038BD61
:1010500000920B7813430B7038BD0020704700B529
:10106000FFF7FBFF012801D0012000BD002000BDDB
:10107000F8B506460C4600200090607800252278DE
:10108000012811D05E4807786169A0683B46411885
:101090003046FFF70AFF6069C0196061216981422B
:1010A0004DD8401AA0614CE0F078002801D0012A08
:1010B00047D021696069091AA161E3790127994242
:1010C0000ED1A16809183046FFF792FE20696061D1
:1010D000A56120788740252040013018077030E056
:1010E000002914D099421FD9A16809183046FFF78A
:1010F0007FFE207887403B480776E1796069401899
:101100006061216981420CD3081AA06119E0A168CD
:10111000002309183046FFF76BFE20696061A56166
:101120000FE0A56161610CE0A3681818CBB201461D
:101130003046FFF75DFE20696061A56101E0A561B1
:1011400020610098F8BD024600200B7810219940DC
:10115000926A01231B071A4311707047F8B50646BF
:101160000C4600276078012829D161692069401A5E
:10117000A0610025002810D0E379984215D9A06815
:10118000002241183046FFF733FEE17960694018CC
:1011900060612169081AA06111E021463046FFF71D
:1011A000D2FF20696061A56109E0A268C3B251184D
:1011B00000223046FFF71CFE20696061A5613846B9
:1011C000F8BD0020704730B500240A78002A05D108
:1011D000826A0123521C1D072A431370FFF7B3FFD5
:1011E000204630BD008C0010983E0010D03D00100D
:1011F0006C3D0010083D001010270000A0000110F9
:101200009E000110D4000110118C0000F8B50546B5
:101210000126E96836073143087800906A46147859
:1012200040200443802004430C700220FFF7D1FDCE
:10123000BF2004406006400EE96831430870F8BDE5
:1012400070B504462046FFF7A0FE01252046203059
:101250000146857500204876002240230BE02421BA
:101260005143091940314D700A708A71C870CB71B1
:1012700088600861521C61789142F0D8002297255D
:10128000AD000BE0242151430919491948700A7037
:101290008A71C870CB7188600861521C6178914274
:1012A000F0D82046FFF797FE00212046FFF795FE75
:1012B00070BD70B54C06640E24266643CD09301807
:1012C000002D01D0403002E09725AD004019047098
:1012D000C9094170C271C370002900D08471022B0A
:1012E00001D100210171002070BD10B50A465306DE
:1012F0005B0E24215943D4090918002C01D0403138
:1013000002E09724A40009190B70D2094A70FFF774
:101310008CFE002010BD70B54C06640E2421614384
:1013200097250918AD0049198A600B6100234B61AC
:101330004B700C70C378012B00D1CA600A78002A68
:1013400003D0FFF795FE002070BDFFF707FFFAE717
:1013500070B54C06640E2421614309184031012503
:101360004D700C708A6000224A610B61002C03D022
:10137000FFF77EFE002070BDFFF7F0FEFAE710B524
:101380000A465306D1095B0E002904D02421594393
:101390000918403105E02421514397240918A4007D
:1013A000091901248C700B70D2094A70FFF70BFFEA
:1013B000002010BDC72108478C4B59680878491C8C
:1013C0008B4A5960914202D911464639596070479B
:1013D00010B5FFF7F1FF0446FFF7EEFF00022043D0
:1013E00010BD10B5814A012353705288002A03D0E2
:1013F000804A126812689047012010BDF3B581B091
:101400000025252101984901471857E0242001991A
:10141000684344182646403601207070E8B23070A8
:101420000299C90745D0A16D002914D0216D606DC6
:10143000F379091A99421AD1A16CEAB209180198F4
:10144000FFF7D6FC206D60650020A0653178012093
:10145000884038702DE03A78012181400A4228D036
:1014600031460198FFF76FFE0020387021E0994265
:101470000DD9A16CEAB209180198FFF7B9FCF1790E
:10148000606D40186065216D081AA06511E0CBB24F
:10149000A16CEAB209180198FFF7AAFC206D6065FB
:1014A0000026A6655348E9B2006842680198904753
:1014B0003E706D1CADB20298400802900298002860
:1014C000A4D10120FEBD38B54B49442048774B4894
:1014D000012404604A4800218170494B7F22203357
:1014E000DA70417480218176FFF76BFB45494648ED
:1014F00000F0B1FD45480090454B464A0121424865
:1015000000F00AF93D48803801682143016001205C
:1015100038BDF0B585B00646002434490020488027
:101520003046FFF79CFD00282DD0306B0127401C72
:101530003F073843017803916A46157B0570002DFB
:1015400024D0280702D5FFF7BEFF0446680604D55D
:101550000F213046FFF752FF0443A80613D5284851
:10156000C179007A214D00020143C8196860FFF774
:101570002FFF010B0205120D6A80002908D03046AA
:10158000FFF72FFF0443204605B0F0BD0020FBE726
:10159000082A11D020A0FEF7D9FF6B8800226946E7
:1015A0003046FFF782FC00221146304600F04AF92F
:1015B00011490A200875E6E72878002808D0F06865
:1015C000801C38430178802211430170002028706C
:1015D0008F20C00031186B8800223046FFF765FC71
:1015E00004480068816830468847CCE79C000110B9
:1015F000423F0010D4000110E04F001080E100E0F5
:10160000008C0010A40400009C0101108000011057
:10161000E80001104C0001103232322025642C20E9
:101620002564210D0A0000001CB5044669462046C9
:1016300000F0ABFB68460278D106C90E0AD001293A
:101640000DD0022910D0D109C9012046FFF797FE1D
:1016500000201CBD6946204600F098FAF8E769466C
:10166000204600F0C0FAF3E76946204600F0E2FAAF
:10167000EEE770B5044609222046D2012030A218B8
:10168000002907D012699269002A30D0807D032892
:101690002BD02CE0972189006118437D032B26D1A4
:1016A000CD798B69AB4213D9581B8861E07801284A
:1016B00003D1CA79886880188860CA79886990429D
:1016C00000D3104682B28968204600F0E3F80EE0AD
:1016D00011690969002904D0807D032801D12046C1
:1016E0008847204600F0DFF801E0204690470020C0
:1016F00070BD10B500290BD00922D20182181269E1
:101700005269002A04D036231B5C032B00D190477A
:10171000002010BD0020704770B5049E0546284685
:10172000FFF7F8FF0920C0012C1823616661A26150
:101730002846FFF785FD70BD10B504460023402202
:1017400019462046FFF7B5FD0023402280212046A0
:10175000FFF7AFFD0121362001550921C9016118AC
:101760004969A07849688847002010BD10B5044633
:101770000920C001201840690069804720340320F7
:10178000A075002010BD10B5014620318A7D0A7673
:1017900004228A750921C90140184069C068804740
:1017A000002010BD10B50921C90141180969C96996
:1017B000002900D08847002010BD10B50922D201B1
:1017C0008418226912689047606980688047002009
:1017D00010BD10B50922D2018218126952689047D3
:1017E000002010BD10B50921C90141180969096A15
:1017F0008847002010BD10B50921C90141180969A9
:10180000496A8847002010BD10B504460920C00170
:10181000201840694069804701202034A0760020CC
:1018200010BD70B505460920C0012C18606980699B
:1018300080472069002142682846904700202035D3
:10184000A87670BD70B50024C26582650225352377
:101850001D5413460A460021FFF77AFD204670BD4D
:1018600010B5002413460A460021FFF771FD2046FB
:1018700010BD70B50024C31DFF33FA339A675A6751
:10188000032535231D5413460A460021FFF743FD67
:10189000204670BD10B5002413460A460021FFF70C
:1018A0003AFD204610BD10B50024042235210A540B
:1018B00000231A461946FFF74BFD204610BD10B510
:1018C0000024052235210A5400231A461946FFF741
:1018D00022FD204610BD242251430818FF30FF305E
:1018E0000230006F80B2704710B50021FFF747FD4E
:1018F00010BD10B504463620005D022805D003282F
:1019000003D02046FFF7F0FF10BD48880128FBD127
:101910000020E0630920C001201800698268204689
:1019200090472046FFF7BFFF10BD10B5044648881A
:1019300001280DD1E0630920C001201800698268E8
:10194000204690472046FFF7AEFF2046FFF75EFC9B
:1019500010BD10B53622125C022A04D0032A02D030
:10196000FFF7C2FF10BDFB490122CA60C26B002A0B
:1019700001D00322CA60F74902220C31FFF762FF4F
:1019800010BD10B5CA88012A02D0FFF7ADFF10BD07
:101990003622125C022A04D0032A08D0FFF7A4FFE3
:1019A00010BDEC4901220831FFF74CFF10BD014684
:1019B00001223431FFF746FF10BD70B505460846D9
:1019C000E44E81783170012904D901462846FFF799
:1019D0008BFF70BD2C462034A27D022A06D0032A3C
:1019E00014D001462846FFF77FFF70BD002909D0BB
:1019F00021750320A0752846FFF7DFFE2846FFF774
:101A000052FF70BD2846FFF74EFF70BD00290FD072
:101A1000207D884216D001462846FFF7DAFE31784D
:101A200021752846FFF7C9FE2846FFF73CFF70BD29
:101A30000220A07521752846FFF7CBFE2846FFF748
:101A400032FF70BD2846FFF72EFF70BD70B58A8843
:101A5000002A02D1CA88002A02D0FFF745FF70BDD4
:101A60008A7855066D0E04462034A27D032A0FD0D5
:101A70006576B94901230A78C1681B07891C194397
:101A80000A70FFF710FF002D05D00220A07570BD71
:101A9000FFF72AFF70BD0120A07570BDF8B50446A0
:101AA0000E4670880922010AD201A5180B0000F029
:101AB0000CFB0868050C1668685E6368A969A07865
:101AC0000A686946904701463DE02969A0788A6A1C
:101AD00069469047014602224A70E96133E0C0B28C
:101AE000030000F0F2FA06040B1219232A3FA96939
:101AF000A0784A6869469047014624E0A969A07821
:101B00008A686946904701461DE0A969A078CA68BD
:101B100069469047014616E0A969A0780A696946B6
:101B2000904701463620005D03280CD0A969A078B3
:101B30004A6969469047014605E0A969A0788A6923
:101B400069469047014668460088002809D0F28817
:101B5000002A06D0824200D9024600922046FFF7B2
:101B600071FEF8BD31462046FFF7BEFEF8BD314696
:101B70002046FFF7B9FEF8BD31462046FFF7B4FE18
:101B8000F8BD31462046FFF7AFFEF8BD10B5002482
:101B90004A78130000F099FA0A1A20231D23090637
:101BA00025171423FFF77AFF1BE06C4B01221A70F4
:101BB0008A78694B5206520E1A70FFF747FF10E001
:101BC000FFF7FBFE0DE0FFF7DCFE0AE0FFF7C1FECA
:101BD00007E0FFF7AAFE04E0FFF78BFE01E0FFF746
:101BE00083FE204610BD70B504460D460026362003
:101BF000005D032805D029462046FFF775FE3046D4
:101C000070BDA8884004400E01280ED80920C001EC
:101C1000201800692946826820469047E8880028F5
:101C2000EDD12046FFF73FFEE9E729462046FFF7C2
:101C30005BFEE4E7F8B505460C4600272078A228AD
:101C400003D00021222818D000E001210020014308
:101C50000920C0012E18002904D03069214682686D
:101C6000284690472179627828462030002A4DD0B6
:101C7000012A29D0032A52D101E00120E7E7807D23
:101C8000022806D003280CD021462846FFF72CFE58
:101C900045E0002943D0802941D02846FFF76FFB5B
:101CA0003DE06088002806D1002904D0802902D0B8
:101CB0002846FFF764FB3069214682682846904732
:101CC0002846FFF7F0FD2AE0807D022806D0032891
:101CD0000CD021462846FFF707FE20E000291ED041
:101CE00080291CD02846FFF74AFB18E060880028AE
:101CF00015D1002906D0802904D030692146826898
:101D0000284690472846FFF7CEFD08E0807D022850
:101D100007D003280DD021462846FFF7E5FD3846B9
:101D2000F8BD0029FBD08029F9D02846FFF727FB12
:101D3000F5E7CC09002201230648002C12D0490601
:101D4000490E24246143491940318978002907D07C
:101D5000436014E0D8000110A40001109C000110A1
:101D600042600CE00C060AD4242461434919240182
:101D70000919897F002901D0436000E042600222F6
:101D800026492846FFF75EFDC9E710B52322520118
:101D90008218137E0B70537E4B70D47E937E240288
:101DA0001B194B80547F137F24021B198B80937F58
:101DB000D27F12029A18CA8060210A540121203071
:101DC00041750020401CC0B20828FBD910BD00217D
:101DD00002E0491CC9B2401C0278002AF9D1084629
:101DE000704770B504460D461646002C15D02046A7
:101DF000FFF7EDFF4000801C308028700321022097
:101E00006970002306E0411CC9B22A54641C481CB6
:101E1000C0B26B542278002AF5D170BDDC000110ED
:101E200010B5032340228121FFF743FA002010BDA3
:101E300010B5044681212046FFF757FA01212046BC
:101E4000FFF753FA002010BD7CB5044600220020A5
:101E50000023009301930B7860252B40574D4AD007
:101E6000202B71D14878030000F02FF90C40391D68
:101E7000104040404040241707408878A8604F49F0
:101E8000012208312046FFF7DDFC5DE04B490122CD
:101E900008312046FFF7D6FC56E0002211462046C6
:101EA000FFF7D0FC50E0454901220C312046FFF7F6
:101EB000C9FC49E000214248491C8142FCDB414900
:101EC0002020C870FFF784FAC3B20022694620467A
:101ED000FEF7EBFF3B4910202039087634E0374904
:101EE00001220C312046FFF7ADFC2DE02046FFF724
:101EF000FBFC02207CBD4B78062B04D00A2B1AD0A9
:101F00000B2B21D11EE04B881B0A222B02D0212B48
:101F100006D00BE0CA88562A00D956222A4805E086
:101F200026482A30CA88092A00D9092201462046B3
:101F3000FFF788FC08E021490122091D2046FFF730
:101F400081FC01E08878686000207CBD10B51346F4
:101F50003622125C032A03D10A468121FFF7F8F9E1
:101F6000002010BD2220088014481830704710B59A
:101F7000124810300068002800D08047002010BDB3
:101F800010B54023114A0121FFF7C5F9002010BD0B
:101F90000A480178012901D1002101700020704711
:101FA00010B54023094A0121FFF7B5F910BD0349D7
:101FB000026810310A6040684860704714010110DF
:101FC00030750000208C0010162100003F07011022
:101FD00030B50B46014600202022012409E00D46C1
:101FE000D5409D4205D31D469540491B2546954049
:101FF00040191546521E002DF1DC30BD70B500248D
:102000002546002801DA01244042002901DA012591
:102010004942FFF7DDFFAC4200D04042002C00D027
:10202000494270BD03460B439B0703D009E008C932
:10203000121F08C0042AFAD203E00B780370401C78
:10204000491C521EF9D27047D2B201E00270401C06
:10205000491EFBD270470022F6E710B513460A4628
:1020600004461946FFF7F0FF204610BD064C012537
:10207000064E05E0E36807CC2B430C3C9847103430
:10208000B442F7D3FEF720F894210000B4210000F9
:1020900030B58C180278401C13071B0F01D1037850
:1020A000401C120906D10278401C03E005780D702F
:1020B000401C491C5B1EF9D101E00B70491C521EEB
:1020C000FBD1A142E6D3002030BD30B47446641E7B
:1020D0002578641CAB4200D21D46635D5B00E318AB
:1020E00030BC184702E008C8121F08C1002AFAD104
:1020F00070477047002001E001C1121F002AFBD188
:1021000070470000802100006C2100007072696E31
:10211000745F6C6F670005010906A1018501050761
:1021200019E029E71500250175019508810295013F
:1021300075088101950375010508190129039102AC
:102140009505750191019506750826FF000507198B
:102150000029918100C00666FF750826FF0009036B
:10216000A10285FD950C0903B28201C030313233E2
:102170003435363738394142434445460000000083
:1021800030313233343536373839616263646566ED
:1021900000000000B4210000000001105001000008
:1021A000902000005C220000500101103006000069
:1021B000F4200000013D33A50BB3A30B33ED0C332A
:1021C000F50C331F0D33FF0C332F0D334F0D336FD1
:1021D0000D4904030904120110013C406104473F0A
:1021E00001010102030133C50D33C70D33C90D339E
:1021F000CF0D33D10D33CB0DF3CD0D33731633F338
:102200001633291633A517333917338717336D174C
:1022100033E51733F7173309183323180511A800CE
:10222000011033211E33311E73491E33911F336F4A
:102230001FF3811F031B651F3C09022200010100DF
:10224000803209042E01030101000921000100016F
:0C22500022563807058103400002000000
:04000005000000C136
:00000001FF
